{
  "contractName": "HelloWorld",
  "abi": [
    {
      "constant": true,
      "inputs": [],
      "name": "yourName",
      "outputs": [
        {
          "name": "",
          "type": "string"
        }
      ],
      "payable": false,
      "stateMutability": "view",
      "type": "function"
    },
    {
      "inputs": [],
      "payable": false,
      "stateMutability": "nonpayable",
      "type": "constructor"
    },
    {
      "constant": false,
      "inputs": [
        {
          "name": "nm",
          "type": "string"
        }
      ],
      "name": "setName",
      "outputs": [],
      "payable": false,
      "stateMutability": "nonpayable",
      "type": "function"
    }
  ],
  "bytecode": "0x608060405234801561001057600080fd5b506040518060400160405280600781526020017f556e6b6e6f776e000000000000000000000000000000000000000000000000008152506000908051906020019061005c929190610062565b50610107565b828054600181600116156101000203166002900490600052602060002090601f016020900481019282601f106100a357805160ff19168380011785556100d1565b828001600101855582156100d1579182015b828111156100d05782518255916020019190600101906100b5565b5b5090506100de91906100e2565b5090565b61010491905b808211156101005760008160009055506001016100e8565b5090565b90565b610328806101166000396000f3fe608060405234801561001057600080fd5b5060043610610053576000357c010000000000000000000000000000000000000000000000000000000090048063c47f002714610058578063d97d663014610113575b600080fd5b6101116004803603602081101561006e57600080fd5b810190808035906020019064010000000081111561008b57600080fd5b82018360208201111561009d57600080fd5b803590602001918460018302840111640100000000831117156100bf57600080fd5b91908080601f016020809104026020016040519081016040528093929190818152602001838380828437600081840152601f19601f820116905080830192505050505050509192919290505050610196565b005b61011b6101b0565b6040518080602001828103825283818151815260200191508051906020019080838360005b8381101561015b578082015181840152602081019050610140565b50505050905090810190601f1680156101885780820380516001836020036101000a031916815260200191505b509250505060405180910390f35b80600090805190602001906101ac92919061024e565b5050565b60008054600181600116156101000203166002900480601f0160208091040260200160405190810160405280929190818152602001828054600181600116156101000203166002900480156102465780601f1061021b57610100808354040283529160200191610246565b820191906000526020600020905b81548152906001019060200180831161022957829003601f168201915b505050505081565b828054600181600116156101000203166002900490600052602060002090601f016020900481019282601f1061028f57805160ff19168380011785556102bd565b828001600101855582156102bd579182015b828111156102bc5782518255916020019190600101906102a1565b5b5090506102ca91906102ce565b5090565b6102f091905b808211156102ec5760008160009055506001016102d4565b5090565b9056fea265627a7a72305820178468fae755707adbd9bfb3aa2839bf9ecdf9b8e0520dac49536c34af0af3be64736f6c63430005090032",
  "source": "pragma solidity ^0.5.9;\r\n\r\ncontract HelloWorld {\r\n    string public yourName;\r\n\r\n    constructor() public {\r\n        yourName = \"Unknown\";\r\n    }\r\n\r\n    function setName(string memory nm) public {\r\n        yourName = nm;\r\n    }\r\n}\r\n",
  "sourcePath": "C:\\Users\\AdMin\\Documents\\ingenerie-logiciel\\master\\S3\\blockchain\\tp\\TP8\\contracts\\HelloWorld.sol",
  "compiler": {
    "name": "solc",
    "version": "0.5.9+commit.e560f70d.Emscripten.clang"
  },
  "schemaVersion": "3.4.16",
  "updatedAt": "2025-12-11T20:46:30.587Z",
  "devdoc": {
    "methods": {}
  },
  "userdoc": {
    "methods": {}
  }
}